:100000000C943B000C9458000C9458000C9458002D
:100010000C9458000C9458000C9458000C94580000
:100020000C9458000C9458000C9458000C945800F0
:100030000C9458000C9458000C9458000C945800E0
:100040000C9458000C9458000C9458000C945800D0
:100050000C9458000C9458000C9458000C945800C0
:100060000C9458000C945800A901AE01B301B801DA
:10007000BD01C201C70111241FBECFEFD8E0DEBF12
:10008000CDBF11E0A0E0B1E0E4E1F4E002C00590F2
:100090000D92A230B107D9F721E0A2E0B1E001C092
:1000A0001D92A630B207E1F70E943C010C940802B1
:1000B0000C9400002898209A80EA8A95F1F72098FD
:1000C00094E19A95F1F783B19CE89A95F1F78170E4
:1000D00008952898209A0000209884E08A95F1F7E6
:1000E00000C083B19FE09A95F1F781700895289838
:1000F000209A00008111209884E18A95F1F72098D8
:100100000895CF93DF93D8E0C0E00E94690020E813
:10011000829FC0011124C695C82BD150B1F78C2FF6
:10012000DF91CF910895CF93DF93D82FC8E08D2F23
:1001300081700E947700D695C150C9F7DF91CF91A9
:1001400008951092B90088E48093B8000895823031
:10015000E9F028F4882341F0813061F023C0833036
:1001600069F0843079F01EC084EA8093BC00ECEB27
:10017000F0E011C084E88093BC00F9CF84EC809358
:10018000BC00F5CF84E88093BC00F1CF84E9809374
:10019000BC0080E0089580818823ECF78091B9004D
:1001A000887F08958FEF08950F931F93CF93DF9368
:1001B000C2E3D62FDE70D42B807FD82B0BEB10E060
:1001C00002C0C150C9F080E00E94A7008833C9F383
:1001D000883011F0803191F4F801D08381E00E94E1
:1001E000A700803271F3883361F391E0883109F41C
:1001F00090E0892F819503C08FEF01C08FEFDF91D1
:10020000CF911F910F91089582E00E94A700089559
:100210008093BB0081E00E94A70091E0883209F43E
:1002200090E0892F81950895CF93DF93D82FC62F23
:1002300040E060E080E40E94D4008D2F0E9408011D
:100240008C2F0E9408010E940401DF91CF91089534
:100250001092C50087E68093C40088E48093C100B3
:1002600086E08093C2000895E0ECF0E0908195FF75
:10027000FDCF8093C60008950E9428010E94A1002E
:1002800060E080E00E94140181E084B9289AC4E013
:10029000D1E00AE010E00F2EF4E6EF2EF12CF02D65
:1002A0000E945A008CEC0E94930084E40E94930008
:1002B0000E9469008823E1F30E945A008CEC0E949E
:1002C00093008EEB0E9493000E948100D82E0E9422
:1002D0008100C82E0E945A002C2D277080E1289F93
:1002E00090011124D694D694D694D694D22AED2D8A
:1002F000F0E0CF01B8010E94DA01805D8883CB0174
:10030000B8010E94DA0120E3280F2983CF01B70149
:100310000E94DA017093030160930201822F90E042
:100320000E943401888190E00E9434018091000194
:1003300090E00E9434018D2DDD0C990BAA0BBB0BB4
:10034000FC017297E730F10538F5EC5CFF4F0C9437
:10035000EE0160E182E10E94140122C060E382E1CB
:100360000E9414011DC060E782E10E94140118C0C0
:1003700060EF82E10E94140113C061E083E10E94FA
:1003800014010EC063E083E10E94140109C067E01C
:1003900083E10E94140104C06AEA82E10E94140110
:1003A0009FE32DE083E0915020408040E1F700C0C2
:1003B000000076CF97FB072E16F4009407D077FD48
:1003C00009D00E94F40107FC05D03EF49095819578
:1003D0009F4F0895709561957F4F0895EE0FFF1F11
:1003E0000590F491E02D0994AA1BBB1B51E107C0B5
:1003F000AA1FBB1FA617B70710F0A61BB70B881FB5
:10040000991F5A95A9F780959095BC01CD01089543
:04041000F894FFCF8E
:020414000A00DC
:00000001FF
