:100000000C9434000C9451000C9451000C94510049
:100010000C9451000C9451000C9451000C9451001C
:100020000C9451000C9451000C9451000C9451000C
:100030000C9451000C9451000C9451000C945100FC
:100040000C9451000C9451000C9451000C945100EC
:100050000C9451000C9451000C9451000C945100DC
:100060000C9451000C94510011241FBECFEFD8E026
:10007000DEBFCDBF11E0A0E0B1E0EEE9F8E002C0E4
:1000800005900D92A830B107D9F721E0A8E0B1E0C2
:1000900001C01D92AE30B207E1F70E9436010C9408
:1000A0004D040C9400002898209A8FE797E0019760
:1000B000F1F700C000002098EFEEF0E03197F1F783
:1000C00000C0000083B1EFE8F6E03197F1F700C01F
:1000D0000000817008952898209A85E08A95F1F7AC
:1000E000000020989AE49A95F1F700C083B190EF50
:1000F0009A95F1F7817008952898209A95E09A953D
:10010000F1F70000811120988FEE90E00197F1F750
:1001100000C0000020980895CF93DF93D8E0C0E09E
:100120000E946B0020E8829FC0011124C695C82B55
:10013000D150B1F78C2FDF91CF910895CF93DF93FA
:10014000D82FC8E08D2F81700E947C00D695C150B9
:10015000C9F7DF91CF9108951092B90088E4809398
:10016000B8000895813061F028F0823089F0833042
:1001700059F01AC084EA8093BC00ECEBF0E00DC0AB
:1001800084E88093BC00F9CF84EC8093BC00F5CF69
:1001900084E98093BC0080E0089580818823ECF797
:1001A0008091B900887F08958FEF08950F931F9372
:1001B000CF93DF93C2E3D62FDE70D42B807FD82B72
:1001C0000BEB10E002C0C150C9F080E00E94B20009
:1001D0008833C9F3883011F0803191F4F801D0836D
:1001E00081E00E94B200803271F3883361F391E0C4
:1001F000883109F490E0892F819503C08FEF01C009
:100200008FEFDF91CF911F910F91089582E00E94AF
:10021000B20008958093BB0081E00E94B20091E09B
:10022000883209F490E0892F81950895CF93DF9368
:10023000D82FC62F40E060E080E40E94D6008D2FCA
:100240000E940A018C2F0E940A010E940601DF9180
:10025000CF9108951092C50087E68093C40088E08E
:100260008093C10086E08093C200089580E091E011
:100270009F938F930E946F011092C50087E6809331
:10028000C40088E08093C10086E08093C2000E9491
:10029000AC000E942A0160E080E00E94160181E02B
:1002A00084B9289A0F900F900E9453008CEC0E9402
:1002B0009E0084E40E949E000E946B008823E1F36C
:1002C0000E9453008CEC0E949E008EEB0E949E00C8
:1002D0000E948C000E948C000E945300E5CFA0E099
:1002E000B0E0E5E7F1E00C942604AE014B5F5F4F10
:1002F000FA0161917191AF0180910A0190910B0116
:100300000E948501E2E00C944204ABE0B0E0EBE82F
:10031000F1E00C9416046C017B018A01FC01178248
:100320001682838181FFCCC1CE0101963C01F6018A
:100330009381F70193FD859193FF81917F0188233C
:1003400009F4BAC1853239F493FD859193FF819107
:100350007F01853229F4B60190E00E947C03E7CF4B
:10036000912C212C312CFFE1F315D8F08B3279F050
:1003700038F4803279F08332A1F4232D20611DC03E
:100380008D3261F0803369F4232D216016C0832DF6
:100390008260382EE32DE4603E2E2AC0F32DF860F3
:1003A0001DC037FC2DC020ED280F2A3040F08E32C2
:1003B000B9F436FC81C1232D2064322E19C036FEDB
:1003C00006C08AE0989E200D1124922E11C0EAE00A
:1003D0002E9E200D1124222EF32DF0623F2E08C0F8
:1003E0008C3621F4832D8068382E02C0883641F483
:1003F000F70193FD859193FF81917F018111B3CF27
:10040000982F9F7D9554933028F40C5F1F4F9FE3E6
:1004100099830DC0833631F0833771F0833509F04D
:1004200059C021C0F801808189830E5F1F4F882445
:100430008394912C530113C02801F2E04F0E511CFC
:10044000F801A080B18036FE03C0692D70E002C0C3
:100450006FEF7FEFC5010E9471034C018201F32D04
:10046000FF773F2E16C0280122E0420E511CF801F2
:10047000A080B18036FE03C0692D70E002C06FEF2E
:100480007FEFC5010E9466034C01F32DF0683F2EFB
:10049000820133FC1BC0822D90E088169906B0F4CF
:1004A000B60180E290E00E947C032A94F4CFF5012B
:1004B00037FC859137FE81915F01B60190E00E9483
:1004C0007C0321102A9421E0821A9108811491045E
:1004D00071F7E8C0843611F0893641F5F80137FE2E
:1004E00007C060817181828193810C5F1F4F08C0BA
:1004F00060817181072E000C880B990B0E5F1F4FD6
:10050000F32DFF763F2E97FF09C09095809570954B
:1005100061957F4F8F4F9F4FF0683F2E2AE030E06C
:10052000A3010E94B803882E861845C0853731F490
:10053000232D2F7EB22E2AE030E025C0932D997F07
:10054000B92E8F36C1F018F4883579F0B5C08037F0
:1005500019F0883721F0B0C0E92FE061BE2EB4FE5B
:100560000DC0FB2DF460BF2E09C034FE0AC0292F38
:100570002660B22E06C028E030E005C020E130E061
:1005800002C020E132E0F801B7FE07C0608171814E
:10059000828193810C5F1F4F06C06081718180E072
:1005A00090E00E5F1F4FA3010E94B803882E8618AB
:1005B000FB2DFF773F2E36FE0DC0232D2E7FA22E62
:1005C000891458F434FE0BC032FC09C0832D8E7E92
:1005D000A82E05C0B82CA32C03C0B82C01C0B92C80
:1005E000A4FE0FC0FE01E80DF11D8081803321F4CF
:1005F0009A2D997EA92E09C0A2FE06C0B394B39489
:1006000004C08A2D867809F0B394A3FC11C0A0FE23
:1006100006C0B21488F4280C922C9B180EC0B21499
:1006200060F4B60180E290E00E947C03B394F7CFBF
:10063000B21418F42B1802C0982C212CA4FE10C060
:10064000B60180E390E00E947C03A2FE17C0A1FCEB
:1006500003C088E790E002C088E590E0B6010CC0D6
:100660008A2D867859F0A1FE02C08BE201C080E29B
:10067000A7FC8DE2B60190E00E947C03891438F457
:10068000B60180E390E00E947C039A94F7CF8A94AD
:10069000F301E80DF11D8081B60190E00E947C031A
:1006A0008110F5CF222009F442CEB60180E290E01D
:1006B0000E947C032A94F6CFF6018681978102C0BE
:1006C0008FEF9FEF2B96E2E10C943204FC01059032
:1006D000615070400110D8F7809590958E0F9F1F44
:1006E0000895FC016150704001900110D8F7809589
:1006F00090958E0F9F1F08950F931F93CF93DF93B5
:10070000FB01238121FD03C08FEF9FEF2CC022FF4F
:1007100016C046815781248135814217530744F41E
:10072000A081B1819D012F5F3F4F318320838C9346
:10073000268137812F5F3F4F3783268314C08B017B
:10074000EC01FB010084F185E02D0995892BE1F690
:10075000D80116968D919C911797019617969C93A8
:100760008E931697CE01DF91CF911F910F9108952F
:10077000FA01AA27283051F1203181F1E8946F93D2
:100780006E7F6E5F7F4F8F4F9F4FAF4FB1E03ED078
:10079000B4E03CD0670F781F891F9A1FA11D680F16
:1007A000791F8A1F911DA11D6A0F711D811D911D49
:1007B000A11D20D009F468943F912AE0269F1124BE
:1007C0003019305D3193DEF6CF010895462F477022
:1007D000405D4193B3E00FD0C9F7F6CF462F4F707D
:1007E000405D4A3318F0495D31FD4052419302D0DB
:1007F000A9F7EACFB4E0A695979587957795679581
:10080000BA95C9F700976105710508959B01AC0180
:100810000A2E06945795479537952795BA95C9F7A7
:10082000620F731F841F951FA01D08952F923F9282
:100830004F925F926F927F928F929F92AF92BF92F0
:10084000CF92DF92EF92FF920F931F93CF93DF939C
:10085000CDB7DEB7CA1BDB0B0FB6F894DEBF0FBEF9
:10086000CDBF09942A88398848885F846E847D8446
:100870008C849B84AA84B984C884DF80EE80FD8048
:100880000C811B81AA81B981CE0FD11D0FB6F894BE
:0E089000DEBF0FBECDBFED010895F894FFCF7F
:08089E0054657374696E670074
:00000001FF
